{
  "_format": "hh-sol-artifact-1",
  "contractName": "ItemListing",
  "sourceName": "contracts/ItemListing.sol",
  "abi": [
    {
      "inputs": [
        {
          "internalType": "uint256",
          "name": "_fee",
          "type": "uint256"
        }
      ],
      "stateMutability": "nonpayable",
      "type": "constructor"
    },
    {
      "anonymous": false,
      "inputs": [
        {
          "indexed": true,
          "internalType": "address",
          "name": "seller",
          "type": "address"
        },
        {
          "indexed": false,
          "internalType": "uint256",
          "name": "itemId",
          "type": "uint256"
        }
      ],
      "name": "ItemDeleted",
      "type": "event"
    },
    {
      "anonymous": false,
      "inputs": [
        {
          "indexed": true,
          "internalType": "address",
          "name": "seller",
          "type": "address"
        },
        {
          "indexed": false,
          "internalType": "uint256",
          "name": "itemId",
          "type": "uint256"
        },
        {
          "indexed": false,
          "internalType": "string",
          "name": "name",
          "type": "string"
        },
        {
          "indexed": false,
          "internalType": "uint256",
          "name": "price",
          "type": "uint256"
        },
        {
          "indexed": false,
          "internalType": "uint256",
          "name": "quantity",
          "type": "uint256"
        }
      ],
      "name": "ItemEdited",
      "type": "event"
    },
    {
      "anonymous": false,
      "inputs": [
        {
          "indexed": true,
          "internalType": "address",
          "name": "seller",
          "type": "address"
        },
        {
          "indexed": false,
          "internalType": "string",
          "name": "name",
          "type": "string"
        },
        {
          "indexed": false,
          "internalType": "uint256",
          "name": "price",
          "type": "uint256"
        },
        {
          "indexed": false,
          "internalType": "uint256",
          "name": "quantity",
          "type": "uint256"
        }
      ],
      "name": "ItemListed",
      "type": "event"
    },
    {
      "anonymous": false,
      "inputs": [
        {
          "indexed": true,
          "internalType": "address",
          "name": "buyer",
          "type": "address"
        },
        {
          "indexed": false,
          "internalType": "string",
          "name": "name",
          "type": "string"
        },
        {
          "indexed": false,
          "internalType": "uint256",
          "name": "price",
          "type": "uint256"
        },
        {
          "indexed": false,
          "internalType": "uint256",
          "name": "quantity",
          "type": "uint256"
        }
      ],
      "name": "ItemPurchased",
      "type": "event"
    },
    {
      "inputs": [
        {
          "internalType": "uint256",
          "name": "_itemId",
          "type": "uint256"
        }
      ],
      "name": "deleteItem",
      "outputs": [],
      "stateMutability": "nonpayable",
      "type": "function"
    },
    {
      "inputs": [
        {
          "internalType": "uint256",
          "name": "_itemId",
          "type": "uint256"
        },
        {
          "internalType": "string",
          "name": "_name",
          "type": "string"
        },
        {
          "internalType": "uint256",
          "name": "_price",
          "type": "uint256"
        },
        {
          "internalType": "uint256",
          "name": "_quantity",
          "type": "uint256"
        }
      ],
      "name": "editItem",
      "outputs": [],
      "stateMutability": "nonpayable",
      "type": "function"
    },
    {
      "inputs": [
        {
          "internalType": "address",
          "name": "_buyer",
          "type": "address"
        }
      ],
      "name": "generatePurchaseHistory",
      "outputs": [
        {
          "components": [
            {
              "internalType": "address",
              "name": "buyer",
              "type": "address"
            },
            {
              "internalType": "string",
              "name": "itemName",
              "type": "string"
            },
            {
              "internalType": "uint256",
              "name": "price",
              "type": "uint256"
            },
            {
              "internalType": "uint256",
              "name": "quantityPurchased",
              "type": "uint256"
            }
          ],
          "internalType": "struct MarketplaceReports.PurchaseHistory[]",
          "name": "",
          "type": "tuple[]"
        }
      ],
      "stateMutability": "view",
      "type": "function"
    },
    {
      "inputs": [],
      "name": "generateSalesReport",
      "outputs": [
        {
          "components": [
            {
              "internalType": "address",
              "name": "seller",
              "type": "address"
            },
            {
              "internalType": "string",
              "name": "itemName",
              "type": "string"
            },
            {
              "internalType": "uint256",
              "name": "price",
              "type": "uint256"
            },
            {
              "internalType": "uint256",
              "name": "quantitySold",
              "type": "uint256"
            }
          ],
          "internalType": "struct MarketplaceReports.SalesReport[]",
          "name": "",
          "type": "tuple[]"
        }
      ],
      "stateMutability": "view",
      "type": "function"
    },
    {
      "inputs": [
        {
          "internalType": "address",
          "name": "_seller",
          "type": "address"
        },
        {
          "internalType": "uint256",
          "name": "_itemId",
          "type": "uint256"
        }
      ],
      "name": "getItemDetails",
      "outputs": [
        {
          "internalType": "string",
          "name": "",
          "type": "string"
        },
        {
          "internalType": "string",
          "name": "",
          "type": "string"
        },
        {
          "internalType": "uint256",
          "name": "",
          "type": "uint256"
        },
        {
          "internalType": "uint256",
          "name": "",
          "type": "uint256"
        }
      ],
      "stateMutability": "view",
      "type": "function"
    },
    {
      "inputs": [],
      "name": "getOwner",
      "outputs": [
        {
          "internalType": "address",
          "name": "",
          "type": "address"
        }
      ],
      "stateMutability": "view",
      "type": "function"
    },
    {
      "inputs": [
        {
          "internalType": "address",
          "name": "_seller",
          "type": "address"
        }
      ],
      "name": "getSellerItemCount",
      "outputs": [
        {
          "internalType": "uint256",
          "name": "",
          "type": "uint256"
        }
      ],
      "stateMutability": "view",
      "type": "function"
    },
    {
      "inputs": [
        {
          "internalType": "string",
          "name": "_name",
          "type": "string"
        },
        {
          "internalType": "string",
          "name": "_description",
          "type": "string"
        },
        {
          "internalType": "uint256",
          "name": "_price",
          "type": "uint256"
        },
        {
          "internalType": "uint256",
          "name": "_quantity",
          "type": "uint256"
        }
      ],
      "name": "listItem",
      "outputs": [],
      "stateMutability": "payable",
      "type": "function"
    },
    {
      "inputs": [],
      "name": "listingFee",
      "outputs": [
        {
          "internalType": "uint256",
          "name": "",
          "type": "uint256"
        }
      ],
      "stateMutability": "view",
      "type": "function"
    },
    {
      "inputs": [
        {
          "internalType": "address",
          "name": "_seller",
          "type": "address"
        },
        {
          "internalType": "uint256",
          "name": "_itemId",
          "type": "uint256"
        }
      ],
      "name": "purchaseItem",
      "outputs": [],
      "stateMutability": "payable",
      "type": "function"
    },
    {
      "inputs": [],
      "name": "withdrawFunds",
      "outputs": [],
      "stateMutability": "nonpayable",
      "type": "function"
    }
  ],
  "bytecode": "0x6080604052348015600f57600080fd5b50604051611759380380611759833981016040819052602c916045565b600080546001600160a01b03191633179055600155605d565b600060208284031215605657600080fd5b5051919050565b6116ed8061006c6000396000f3fe60806040526004361061009c5760003560e01c8063594b1bfd11610064578063594b1bfd14610167578063654fc833146101975780636a1b7ecc146101b7578063893d20e8146101cd578063a462b12c146101f5578063ec4ceeea1461021557600080fd5b806303e0786c146100a15780631733e999146100cc57806324600fc314610110578063327249001461012757806337861eb11461013a575b600080fd5b3480156100ad57600080fd5b506100b6610228565b6040516100c39190610ffe565b60405180910390f35b3480156100d857600080fd5b506101026100e736600461107f565b6001600160a01b031660009081526002602052604090205490565b6040519081526020016100c3565b34801561011c57600080fd5b50610125610238565b005b6101256101353660046110a1565b61032f565b34801561014657600080fd5b5061015a61015536600461107f565b61055f565b6040516100c391906110cb565b34801561017357600080fd5b506101876101823660046110a1565b610571565b6040516100c39493929190611124565b3480156101a357600080fd5b506101256101b236600461115d565b6107a3565b3480156101c357600080fd5b5061010260015481565b3480156101d957600080fd5b506000546040516001600160a01b0390911681526020016100c3565b34801561020157600080fd5b5061012561021036600461123b565b610896565b610125610223366004611292565b610a1d565b606061023330610bb5565b905090565b6000546001600160a01b031633146102a65760405162461bcd60e51b815260206004820152602660248201527f4f6e6c7920746865206f776e65722063616e20706572666f726d20746869732060448201526530b1ba34b7b760d11b60648201526084015b60405180910390fd5b47806102fe5760405162461bcd60e51b815260206004820152602160248201527f4e6f2066756e647320617661696c61626c6520666f72207769746864726177616044820152601b60fa1b606482015260840161029d565b604051339082156108fc029083906000818181858888f1935050505015801561032b573d6000803e3d6000fd5b5050565b6001600160a01b03821660009081526002602052604090205481106103665760405162461bcd60e51b815260040161029d906112e8565b6001600160a01b038216600090815260026020526040812080548390811061039057610390611311565b60009182526020909120600590910201600481015490915060ff166103ec5760405162461bcd60e51b81526020600482015260126024820152714974656d206973206e6f742061637469766560701b604482015260640161029d565b60008160030154116104345760405162461bcd60e51b81526020600482015260116024820152704974656d206f7574206f662073746f636b60781b604482015260640161029d565b806002015434101561047d5760405162461bcd60e51b8152602060048201526012602482015271496e73756666696369656e742066756e647360701b604482015260640161029d565b60038101805490600061048f8361133d565b909155505060028101546040516001600160a01b0385169180156108fc02916000818181858888f193505050501580156104cd573d6000803e3d6000fd5b5060008160020154346104e09190611354565b9050801561051757604051339082156108fc029083906000818181858888f19350505050158015610515573d6000803e3d6000fd5b505b600282015460405133917f6905b81a1bc0a4bef8543ccaa1f7cc4673b2e1807fe1b0a5ac669ab88d06fbed916105519186916001906113a1565b60405180910390a250505050565b606061056b3083610d91565b92915050565b6001600160a01b0382166000908152600260205260408120546060918291819085106105af5760405162461bcd60e51b815260040161029d906112e8565b6001600160a01b03861660009081526002602052604081208054879081106105d9576105d9611311565b90600052602060002090600502016040518060a001604052908160008201805461060290611367565b80601f016020809104026020016040519081016040528092919081815260200182805461062e90611367565b801561067b5780601f106106505761010080835404028352916020019161067b565b820191906000526020600020905b81548152906001019060200180831161065e57829003601f168201915b5050505050815260200160018201805461069490611367565b80601f01602080910402602001604051908101604052809291908181526020018280546106c090611367565b801561070d5780601f106106e25761010080835404028352916020019161070d565b820191906000526020600020905b8154815290600101906020018083116106f057829003601f168201915b5050509183525050600282015460208201526003820154604082015260049091015460ff16151560609091015260808101519091506107815760405162461bcd60e51b815260206004820152601060248201526f4974656d20697320696e61637469766560801b604482015260640161029d565b8051602082015160408301516060909301519199909850919650945092505050565b3360009081526002602052604090205481106107d15760405162461bcd60e51b815260040161029d906112e8565b3360009081526002602052604081208054839081106107f2576107f2611311565b60009182526020909120600590910201600481015490915060ff166108515760405162461bcd60e51b81526020600482015260156024820152744974656d20616c726561647920696e61637469766560581b604482015260640161029d565b60048101805460ff1916905560405182815233907f21c5ff13f7a7163d7cd6a98d82517de93dcc833b527ad63a5550894be16070c89060200160405180910390a25050565b3360009081526002602052604090205484106108c45760405162461bcd60e51b815260040161029d906112e8565b600082116109145760405162461bcd60e51b815260206004820152601f60248201527f5072696365206d7573742062652067726561746572207468616e207a65726f00604482015260640161029d565b600081116109345760405162461bcd60e51b815260040161029d90611437565b33600090815260026020526040812080548690811061095557610955611311565b60009182526020909120600590910201600481015490915060ff166109bc5760405162461bcd60e51b815260206004820152601960248201527f43616e6e6f74206564697420696e616374697665206974656d00000000000000604482015260640161029d565b806109c785826114c8565b50600281018390556003810182905560405133907f26bebd3959d815dff8c358d75d954372996041bcce5252e42dacaad92b37940490610a0e908890889088908890611587565b60405180910390a25050505050565b6001543414610a6e5760405162461bcd60e51b815260206004820152601860248201527f4c697374696e6720666565206d75737420626520706169640000000000000000604482015260640161029d565b60008211610abe5760405162461bcd60e51b815260206004820152601f60248201527f5072696365206d7573742062652067726561746572207468616e207a65726f00604482015260640161029d565b60008111610ade5760405162461bcd60e51b815260040161029d90611437565b6040805160a0810182528581526020808201869052818301859052606082018490526001608083018190523360009081526002835293842080549182018155845292208151919283926005909102909101908190610b3c90826114c8565b5060208201516001820190610b5190826114c8565b506040828101516002830155606083015160038301556080909201516004909101805460ff19169115159190911790555133907f35562100a34097fd1f91646348c0ceb4042d4282d31931fbc444cf12745f6b0790610a0e908890879087906115b3565b604051631733e99960e01b815230600482015260609082906000906001600160a01b03831690631733e99990602401602060405180830381865afa158015610c01573d6000803e3d6000fd5b505050506040513d601f19601f82011682018060405250810190610c2591906115d8565b905060008167ffffffffffffffff811115610c4257610c42611176565b604051908082528060200260200182016040528015610ca757816020015b610c94604051806080016040528060006001600160a01b031681526020016060815260200160008152602001600081525090565b815260200190600190039081610c605790505b50905060005b82811015610d885760405163594b1bfd60e01b815230600482015260248101829052600090819081906001600160a01b0388169063594b1bfd90604401600060405180830381865afa158015610d07573d6000803e3d6000fd5b505050506040513d6000823e601f3d908101601f19168201604052610d2f919081019061163e565b935093505092506040518060800160405280306001600160a01b0316815260200184815260200183815260200182815250858581518110610d7257610d72611311565b6020908102919091010152505050600101610cad565b50949350505050565b604051631733e99960e01b81526001600160a01b038281166004830152606091600091851690631733e99990602401602060405180830381865afa158015610ddd573d6000803e3d6000fd5b505050506040513d601f19601f82011682018060405250810190610e0191906115d8565b905060008167ffffffffffffffff811115610e1e57610e1e611176565b604051908082528060200260200182016040528015610e8357816020015b610e70604051806080016040528060006001600160a01b031681526020016060815260200160008152602001600081525090565b815260200190600190039081610e3c5790505b50905060005b82811015610d885760405163594b1bfd60e01b81526001600160a01b0386811660048301526024820183905260009182918291908a169063594b1bfd90604401600060405180830381865afa158015610ee6573d6000803e3d6000fd5b505050506040513d6000823e601f3d908101601f19168201604052610f0e919081019061163e565b935093505092506040518060800160405280896001600160a01b0316815260200184815260200183815260200182815250858581518110610f5157610f51611311565b6020908102919091010152505050600101610e89565b60005b83811015610f82578181015183820152602001610f6a565b50506000910152565b60008151808452610fa3816020860160208601610f67565b601f01601f19169290920160200192915050565b60018060a01b0381511682526000602082015160806020850152610fde6080850182610f8b565b905060408301516040850152606083015160608501528091505092915050565b6000602082016020835280845180835260408501915060408160051b86010192506020860160005b8281101561105757603f19878603018452611042858351610fb7565b94506020938401939190910190600101611026565b50929695505050505050565b80356001600160a01b038116811461107a57600080fd5b919050565b60006020828403121561109157600080fd5b61109a82611063565b9392505050565b600080604083850312156110b457600080fd5b6110bd83611063565b946020939093013593505050565b6000602082016020835280845180835260408501915060408160051b86010192506020860160005b8281101561105757603f1987860301845261110f858351610fb7565b945060209384019391909101906001016110f3565b6080815260006111376080830187610f8b565b82810360208401526111498187610f8b565b604084019590955250506060015292915050565b60006020828403121561116f57600080fd5b5035919050565b634e487b7160e01b600052604160045260246000fd5b604051601f8201601f1916810167ffffffffffffffff811182821017156111b5576111b5611176565b604052919050565b600067ffffffffffffffff8211156111d7576111d7611176565b50601f01601f191660200190565b600082601f8301126111f657600080fd5b8135611209611204826111bd565b61118c565b81815284602083860101111561121e57600080fd5b816020850160208301376000918101602001919091529392505050565b6000806000806080858703121561125157600080fd5b84359350602085013567ffffffffffffffff81111561126f57600080fd5b61127b878288016111e5565b949794965050505060408301359260600135919050565b600080600080608085870312156112a857600080fd5b843567ffffffffffffffff8111156112bf57600080fd5b6112cb878288016111e5565b945050602085013567ffffffffffffffff81111561126f57600080fd5b6020808252600f908201526e125b9d985b1a59081a5d195b481251608a1b604082015260600190565b634e487b7160e01b600052603260045260246000fd5b634e487b7160e01b600052601160045260246000fd5b60008161134c5761134c611327565b506000190190565b8181038181111561056b5761056b611327565b600181811c9082168061137b57607f821691505b60208210810361139b57634e487b7160e01b600052602260045260246000fd5b50919050565b6060815260008085546113b381611367565b80606086015260018216600081146113d257600181146113ee57611422565b60ff1983166080870152608082151560051b8701019350611422565b88600052602060002060005b83811015611419578154888201608001526001909101906020016113fa565b87016080019450505b50505060208301949094525060400152919050565b60208082526022908201527f5175616e74697479206d7573742062652067726561746572207468616e207a65604082015261726f60f01b606082015260800190565b601f8211156114c357806000526020600020601f840160051c810160208510156114a05750805b601f840160051c820191505b818110156114c057600081556001016114ac565b50505b505050565b815167ffffffffffffffff8111156114e2576114e2611176565b6114f6816114f08454611367565b84611479565b6020601f82116001811461152a57600083156115125750848201515b600019600385901b1c1916600184901b1784556114c0565b600084815260208120601f198516915b8281101561155a578785015182556020948501946001909201910161153a565b50848210156115785786840151600019600387901b60f8161c191681555b50505050600190811b01905550565b8481526080602082015260006115a06080830186610f8b565b6040830194909452506060015292915050565b6060815260006115c66060830186610f8b565b60208301949094525060400152919050565b6000602082840312156115ea57600080fd5b5051919050565b600082601f83011261160257600080fd5b8151611610611204826111bd565b81815284602083860101111561162557600080fd5b611636826020830160208701610f67565b949350505050565b6000806000806080858703121561165457600080fd5b845167ffffffffffffffff81111561166b57600080fd5b611677878288016115f1565b945050602085015167ffffffffffffffff81111561169457600080fd5b6116a0878288016115f1565b60408701516060909701519598909750935050505056fea26469706673582212200d4eeb19576c643b413002050abe4665e93b3706a9e29c59cccf632f4fc83ba864736f6c634300081b0033",
  "linkReferences": {},
  "deployedLinkReferences": {}
}